{
  "_format": "hh-sol-artifact-1",
  "contractName": "PlethoriVault",
  "sourceName": "contracts/PlethoriVault.sol",
  "abi": [
    {
      "inputs": [
        {
          "internalType": "contract IUniswapV3Factory",
          "name": "_factory",
          "type": "address"
        },
        {
          "internalType": "contract INonfungiblePositionManager",
          "name": "_nonfungiblePositionManager",
          "type": "address"
        }
      ],
      "stateMutability": "nonpayable",
      "type": "constructor"
    },
    {
      "inputs": [
        {
          "internalType": "uint256",
          "name": "tokenId",
          "type": "uint256"
        }
      ],
      "name": "deposit",
      "outputs": [],
      "stateMutability": "nonpayable",
      "type": "function"
    },
    {
      "inputs": [
        {
          "internalType": "uint256",
          "name": "",
          "type": "uint256"
        }
      ],
      "name": "deposits",
      "outputs": [
        {
          "internalType": "address",
          "name": "owner",
          "type": "address"
        },
        {
          "internalType": "int24",
          "name": "tickLower",
          "type": "int24"
        },
        {
          "internalType": "int24",
          "name": "tickUpper",
          "type": "int24"
        },
        {
          "internalType": "uint128",
          "name": "liquidity",
          "type": "uint128"
        }
      ],
      "stateMutability": "view",
      "type": "function"
    },
    {
      "inputs": [],
      "name": "factory",
      "outputs": [
        {
          "internalType": "contract IUniswapV3Factory",
          "name": "",
          "type": "address"
        }
      ],
      "stateMutability": "view",
      "type": "function"
    },
    {
      "inputs": [],
      "name": "nonfungiblePositionManager",
      "outputs": [
        {
          "internalType": "contract INonfungiblePositionManager",
          "name": "",
          "type": "address"
        }
      ],
      "stateMutability": "view",
      "type": "function"
    }
  ],
  "bytecode": "0x608060405234801561001057600080fd5b5060405161053138038061053183398101604081905261002f91610060565b600080546001600160a01b039384166001600160a01b031991821617909155600180549290931691161790556100b1565b60008060408385031215610072578182fd5b825161007d81610099565b602084015190925061008e81610099565b809150509250929050565b6001600160a01b03811681146100ae57600080fd5b50565b610471806100c06000396000f3fe608060405234801561001057600080fd5b506004361061004c5760003560e01c8063b02c43d014610051578063b44a2722146100e1578063b6b55f251461010c578063c45a015514610121575b600080fd5b6100a361005f366004610344565b600260208190526000918252604090912080546001909101546001600160a01b03821692600160a01b8304810b92600160b81b9004900b906001600160801b031684565b604080516001600160a01b039095168552600293840b60208601529190920b908301526001600160801b031660608201526080015b60405180910390f35b6001546100f4906001600160a01b031681565b6040516001600160a01b0390911681526020016100d8565b61011f61011a366004610344565b610134565b005b6000546100f4906001600160a01b031681565b600081116101885760405162461bcd60e51b815260206004820152601c60248201527f4e465420746f6b656e49642063616e206e6f74206265207a65726f2e00000000604482015260640160405180910390fd5b600080600061019684610253565b60408051608081018252338152600294850b602080830191825294860b8284019081526001600160801b039485166060840190815260009b8c5295879052929099209051815499519251860b62ffffff908116600160b81b0262ffffff60b81b199490970b16600160a01b026001600160b81b0319909a166001600160a01b03919091161798909817169290921786555160019095018054959091166fffffffffffffffffffffffffffffffff1990951694909417909355505050565b60015460405163133f757160e31b815260048101839052600091829182916001600160a01b0316906399fbab88906024016101806040518083038186803b15801561029d57600080fd5b505afa1580156102b1573d6000803e3d6000fd5b505050506040513d601f19601f820116820180604052508101906102d5919061035c565b50949e939d50919b50919950505050505050505050565b80516001600160a01b038116811461030357600080fd5b919050565b8051600281900b811461030357600080fd5b80516001600160801b038116811461030357600080fd5b805162ffffff8116811461030357600080fd5b600060208284031215610355578081fd5b5035919050565b6000806000806000806000806000806000806101808d8f03121561037e578788fd5b8c516bffffffffffffffffffffffff81168114610399578889fd5b9b506103a760208e016102ec565b9a506103b560408e016102ec565b99506103c360608e016102ec565b98506103d160808e01610331565b97506103df60a08e01610308565b96506103ed60c08e01610308565b95506103fb60e08e0161031a565b94506101008d015193506101208d0151925061041a6101408e0161031a565b91506104296101608e0161031a565b90509295989b509295989b509295989b56fea264697066735822122082070fad52326456f2cf6797e3b11c23f4ca31292984c7c9b3bf25b8eb42151664736f6c63430008040033",
  "linkReferences": {},
  "deployedLinkReferences": {}
}